:10000000D5C00000F0C000000C94EF12ECC000005E
:10001000EAC000000C94E012E6C00000E4C000005A
:10002000E2C000000C94FE12DEC00000DCC0000044
:10003000DAC00000D8C000000C94A212D4C00000A6
:10004000D2C00000D0C00000CEC00000CCC0000074
:10005000CAC00000C8C00000C6C00000C4C0000084
:10006000C2C00000C0C00000BEC00000BCC0000094
:10007000303237332E302E000001050414101115D4
:100080000000010002000300040005000600070054
:1000900009000A000C000E001100130016001900E0
:1000A0001C002000240029002D00320038003E00F2
:1000B00045004C0054005C0065006E00790084002F
:1000C0008F009C00A900B800C700D700E800FB0023
:1000D0000E01230139015001680182019E01BA011C
:1000E000D901F9011B023E0264028B02B502E00253
:1000F0000E033D037003A403DB03150451049004B5
:10010000D10416055E05A905F70548069D06F50606
:100110005107B10714087C08E7085709CB09440ABE
:10012000C10A430BCA0B560CE70C7E0D190EBB0E11
:10013000620F0F10C1107B113A120013CC13A014E0
:100140007A155C16451735182D192D1A351B451CC7
:100150005E1D801EAA1FDD201A226023B0240926FE
:100160006D27DB28532AD72B652DFF2EA430543260
:100170001134DA35AF379139803B7D3D863F9E4162
:10018000C343F74539488A4AEB4C5A4FDA51695410
:100190000957B9597A5C4D5F316227652F68496B01
:1001A000776EB7710B757378EF7B807F11241FBE5C
:1001B000CFEFD4E0DEBFCDBF11E0A0E0B1E0ECE3D3
:1001C000FFE202C005900D92A63DB107D9F722E0EB
:1001D000A6EDB1E001C01D92A937B207E1F70E9478
:1001E0002F130C949C170CCFF89498ED9FBD83BFF0
:1001F00078940895482F9B01E2E4F2E090E080E0DB
:10020000508151110BC063E070E00E94ED16FC01BB
:10021000EE5BFD4F40833283218305C00196339608
:100220008031910569F70895EF92FF920F931F9324
:10023000CF93DF93D0914202D11107C0DF91CF91CC
:100240001F910F91FF90EF900895E0904302F0907E
:100250004402C0911F02C1500C2F000F110B0E5D04
:100260001D4FC7FD09C0D801FE91EE918D01B70168
:100270008D2F0995811114C0E2E4F2E0838180831F
:1002800084819581928381833396B2E0EF36FB07B8
:10029000A9F710926F021092710210927002CACFE9
:1002A000C150DFCFBC0180917402A4CF10927402C0
:1002B000109273021092720281E080930F020895EF
:1002C0000F931F93CF93C82F08EA17E0C15020F473
:1002D000CF911F910F91089582E086DFC8010197A9
:1002E000F1F780E081DFF2CF86E884B9E1E6F0E063
:1002F00080818260808388E082B910923E021092F1
:100300003F028FEE83B90895E0910401F091050159
:100310003196FB70F460F0930501E0930401809145
:1003200012028B5A80931202E491809112028E0F76
:100330000895CF93DF9300D01F92CDB7DEB7209101
:100340004401309145014091460129833A834B8312
:10035000FE01319650E040E0A1E0B0E090E0219154
:10036000BD0102C0660F771F2A95E2F79B01BC0111
:10037000042E02C0759567950A94E2F7637029F020
:100380006130D1F030B3322B1BC060B3322F3095C7
:10039000262F232320BB22B3232322BB21B32323D5
:1003A00021BB4E5F5F4F46305105C9F60F900F904D
:1003B0000F90DF91CF91089560B3322F309536239F
:1003C00030BB32B3322B32BB31B3232BE9CF811197
:1003D00082E0AFCF81118AE0ACCF811188E0A9CF54
:1003E000811188E2A6CF811180E2A3CF811182E240
:1003F000A0CF81118AE29DCF81E00895E82FF0E03F
:10040000EE0FFF1FE058FF4F459154912091770266
:1004100030917802932F969580E02417350778F471
:100420002F5F3F4F8F5F9817C0F73093780220936C
:10043000770281E04217530709F080E008954217E0
:10044000530780F721503109EDCFCF93DF9300D0D0
:1004500000D000D0CDB7DEB720910F01409130021F
:100460005091310247525B4009F422E0843059F444
:1004700060931B0126960FB6F894DEBF0FBECDBF6A
:10048000DF91CF9108956623A9F3823019F497E99B
:10049000961B692F96E0E7E4F1E0DE0111960190EA
:1004A0000D929A95E1F78150990B880F991FA1E061
:1004B000B0E0AC0FBD1F8A0F9B1FDC01ED91FC91DA
:1004C000E20FF11D6083D6CF813011F460934301B8
:1004D0000895BF92CF92DF92EF92FF920F931F93F6
:1004E000CF93DF93EC0140910F0190911A01E42F1B
:1004F0009111E2E0F0E0E15FFE4F228120930C01D8
:10050000858180930B01E92FF0E0E15FFE4F31859B
:10051000622F70E0442389F0313079F4860F972FF1
:10052000911D95958795DF91CF911F910F91FF9028
:10053000EF90DF90CF90BF900895C617D70794F142
:100540008C171D0684F3411102C08C2FECCF821B47
:10055000432F4150550B8A01E82EF12CC701BA01F7
:100560000E941E1760930C026695E62FF0E0822F22
:10057000D12CC12CB12CB316B1F2C601B8010E9426
:100580000A17822F860FCE0CDF1CAE01481B5109C3
:1005900057FF03C0519541955109E417F5071CF623
:1005A000B394E9CF822FBFCFEFE0F1E0868580934F
:1005B0000D018389808B8093160208958091080233
:1005C000882351F09091150290930B0280930702BB
:1005D0001092060210920502089581E0089582307B
:1005E00019F460933E0108956111609339010895F3
:1005F000662369F0813099F48091320290913B0139
:10060000891B681B60933B0182E080930E018091FF
:100610003A01873418F086E480933A010895635EC6
:1006200060933A01F4CF60933F010895E82FF0E022
:10063000E15FFE4F60AB08952091200130912101D0
:100640004FEF480F81E090E002C0880F991F4A9554
:10065000E2F7662339F0822B932B9093210180934C
:1006600020010895809582239323F7CF20913401B0
:1006700087E8821B8093080130E08091FE01813081
:1006800011F18230A9F18DE28093070189E1809315
:100690000601C9016EE170E00E94ED16E4E6F0E0AB
:1006A000BF010E941E176093F701C9016DE270E05F
:1006B0000E94ED16BF010E941E176093F601C9014A
:1006C00069E170E02CC0109206011092F50182E3FE
:1006D00080930701C90162E370E00E94ED1664E6B1
:1006E00070E00E941E176093F7016093F601089571
:1006F0001092F70184E18093070180E58093060161
:10070000C90164E170E00E94ED16E4E6F0E0BF018B
:100710000E941E176093F601C90160E570E00E9417
:10072000ED16BF010E941E176093F5010895CF9347
:10073000DF938FE091E09093110280931002F89480
:10074000D0E0C0E0E0911002F0911102EC0FFD1F2B
:1007500060812196CE010E948A17C533D10591F799
:1007600065EA90E080E00E948A177894DF91CF914B
:1007700008951092400280B191B1209112028295A9
:10078000869586958370990F990F890F820F8093B4
:10079000120280913502882309F449C01092350273
:1007A00080913E0290911702992351F01F98109268
:1007B000410291E020913E02211190E090933E028F
:1007C00081115BC080910E01882391F180913A02E2
:1007D00090913B02909337028093360260913901E9
:1007E0006750262F220F60E671E00E940A17620F01
:1007F000609334028091F4018823B9F18150809391
:10080000F40180911702811109C08EE884B981E05A
:1008100080933E0210923F028FEE83B980910E01C9
:10082000882329F080910E01815080930E01089554
:10083000209117028091360290913702222371F2A3
:1008400020913A0230913B0243E0369527954A9534
:10085000E1F7280F391F53E0969587955A95E1F7F0
:10086000A901481B590BCA01B5CF643750F670E097
:1008700060E084E0BFDC85E0C2CF813079F6809112
:100880000E01811104C080911702882341F08091EC
:100890003C0290913D02909339028093380220915E
:1008A00038023091390260913B01A901A6E05695CA
:1008B0004795AA95E1F7062E000C770B460F571FB8
:1008C0004E5051405093330240933202B5E036957A
:1008D0002795BA95E1F780910E01882301F13093B5
:1008E000E5012093E4013093E7012093E601309382
:1008F000E9012093E8013093EB012093EA01309362
:10090000ED012093EC013093EF012093EE01309341
:10091000F1012093F0013093F3012093F2018091D3
:100920001702811139C08091E301E82FF0E0EE0F4A
:10093000FF1FEC51FE4F40815181D901A41BB50B23
:10094000AD01318320838F5F87708093E301CD01F8
:10095000880F991F880F991F820F931F20913A01CA
:1009600030E0261B370B225F3E4F220F331F821BC6
:10097000930B23E018161906ACF401972150D1F718
:100980001816190654F557FD44C02091E2011216BD
:100990006CF4281B2093E2018091170281113ECF55
:1009A000A3DC3CCF009751F30196E8CF880F991F45
:1009B000BC016350710977FF02C06F5F7F4F75956F
:1009C00067951616170614F061E070E088E1861B43
:1009D0008093E20185E00EDCDFCF8C3FBFEF9B0709
:1009E000C4F457FF16C02091E20127FF02C0245033
:1009F000D0CF24EE281B2093E20120913402263729
:100A000058F26CEF7FEF681B790B7595679586E060
:100A1000E2CF80913402853708F4BECF70E060E009
:100A200087E0D9CF882321F0813031F0829A05C048
:100A3000829892988A9808958298929A8A9A0895AC
:100A4000CF93C82F80911502811109C0CC2339F0B2
:100A500080914301C81718F4F3DF82E031DC809104
:100A6000170281110BC065DC91E0C11101C090E05B
:100A700081E0C73408F480E0890FD4DFC11123C0BE
:100A80008AB78F778ABF10927802109277021092FD
:100A90006D0010926C0010926F0010926E006898BA
:100AA0004898809115028C1380931402C09315020C
:100AB000C093130282E0C23020F081E0CF3F09F4FE
:100AC00080E0CF9191CBE0911602F0E0EE0FFF1F96
:100AD000EE0FFF1FEA54FE4F0190F081E02D8FEFE3
:100AE0008C0F0995DECFCF93C091150282E38C0F56
:100AF000873908F080E0A4DF83E0E2DB8C2FCF9120
:100B00009FCFCF93DF93D82FC091150280E098DF5D
:100B10008D2F86958695D4DB8C2FDF91CF9190CF4A
:100B200080930D0290911502282F291B981710F021
:100B3000292F281B3091FB01311106C0309124016F
:100B4000332369F0223058F08093FC0184E08093D5
:100B5000FA0181E08093FB019093FD01089570CF2D
:100B60000F931F93CF93DF93E82F209134028FEFE1
:100B7000820F833740F480E0DCDB80E0DF91CF91AF
:100B80001F910F914FCFDE2FD295DF70EF708091C4
:100B90000902811125C080913E0190E053E0880F49
:100BA000991F5A95E1F768177907F8F430910E020A
:100BB00038171906D4F43323C1F0C1E08091140230
:100BC0008F3008F4C0E081E0D23009F080E0C82B1B
:100BD000CF5F80911702882309F46DC080E05EC06A
:100BE000C2E0E73020F4F0E018C0CD2FFACFE730B4
:100BF00069F50091DB0110E00F5F1F4F85DB65E0B9
:100C00000E94FE169801290F311DC90166E070E0AF
:100C10000E941E178093DB01FC01E758FF4FE4910F
:100C2000C33009F080C08091DA0190E0019663E161
:100C300070E00E940A178093DA018D579E4FDC0105
:100C4000CC91D33009F08DC0DC2F8EC0E830C9F4D0
:100C500080911702811113C083E090E0682379230B
:100C6000672B51F48091DB0190E0019666E070E023
:100C70000E941E178093DB01E091DB01B4CF8FE06F
:100C8000ECCFE93009F4A5CF209132023091330244
:100C900080E037FF1CC0E0E029C08E5FE82FF0E065
:100CA000EC55FE4F90812917C0F73197E081F0E0B5
:100CB000E858FF4FB4CFCB019695879563E070E07D
:100CC0000E940A17FC01EE0FFF1FA7CF8E5FE82FCF
:100CD000F0E0EA56FE4F908192171306B9F3B4F391
:100CE0003197E081F0E0E858FF4FE49180911702DE
:100CF000811196CFCB019695879563E070E00E94B5
:100D00000A17C82FD330F1F0D43071F58091DA0191
:100D100090E001966DE170E00E940A178093DA017D
:100D20008A599E4F1BC0C43069F78091DA0190E068
:100D300001966DE170E00E940A178093DA018A59EA
:100D40009E4F7DCF8091DA0190E0019663E170E0E3
:100D50000E940A178093DA018D579E4FDC01DC91C7
:100D600003C0D43009F470CFCC2321F0C13019F086
:100D7000EE0F01C0E0E08E2FDCDA8D2FD33008F4C7
:100D8000FDCE82E0FBCECF93DF93909116029817B1
:100D900059F0C82FD091150280E052DEC0931602A0
:100DA0008D2FDF91CF914CCEDF91CF910895E82F19
:100DB000F0E0809115028150990BE817F90719F1BD
:100DC000EE0FFF1FE058FF4F8591949190937802AA
:100DD00080937702880F892F881F990B91958093B4
:100DE0007602992790936D0080936C008AB7806893
:100DF0008ABF80911502811104C010926F00109279
:100E00006E00689A489A0895813019F410921D0175
:100E10000895823019F460931E010895833019F407
:100E200060931C010895843019F4609310010895B3
:100E3000853011F4609324010895883041F41092B4
:100E40000802109206021092050280E00895813B8C
:100E500081F4809108028150833048F483E08093CC
:100E6000080280930702109206021092050281E0A8
:100E70000895853BB1F4CB016EE370E00E940A1740
:100E8000892B19F7809108028A3FF8F68B5F8093CF
:100E9000080280930702109206021092050223DED8
:100EA000D4CF813021F780910502909106020196FE
:100EB00088382EE0920728F490930602809305026A
:100EC000C4CF109206021092050280910802882376
:100ED00009F4BBCF815080930802B7CFFF920F93E4
:100EE0001F93CF93DF938C01EB01F42E809130029E
:100EF00090913102892B31F0E0913002F091310272
:100F000089E009951093310200933002012B39F0EA
:100F1000E0913002F0913102BE018F2D099581E000
:100F200080930F02DF91CF911F910F91FF90089551
:100F3000CF93DF93E0911F02D0E0C0E0EE2351F0A9
:100F4000E150E0931F02F0E0EE0FFF1FE05EFD4F67
:100F5000C081D181E0911F0290E080E0EE2341F05A
:100F6000E150FF0BEE0FFF1FE05EFD4F808191818E
:100F70004AE070E060E0B2DFCE01DF91CF910895EA
:100F8000883039F41092F9011092DC0180E058DDCC
:100F90000CC0813001F59091DC01911108C06032E4
:100FA000710518F08093DC0181D980E008959130BB
:100FB00081F46B3B710520F082E08093DC01E6CF89
:100FC0006115710591F3660F660F862F88708E5E2E
:100FD000DECFAEDFEACF813811F0813E31F791E00C
:100FE0009093DC01813E41F48091F901865F80930A
:100FF000F9015CD98BE4CBCF8091F9018F5FF7CFFA
:101000009C0190911F02983088F4E92FF0E0EE0FD8
:10101000FF1FE05EFD4F318320839F5F90931F028F
:1010200048E0C9015BDF80911F0208958FEF0895AA
:101030000F931F93CF93DF93EC018B0179DFB801FE
:10104000CE01DF91CF911F910F91DACF813C39F41E
:1010500070E060E085ED9BE0EBDF80E00895823C8E
:1010600029F470E060E08DE49BE0F6CF81E0089524
:10107000CF93DF93843041F5C0913002D09131029B
:1010800080E0D0DC80E055D98FE0CC32D80731F455
:1010900069E170E089EA98E0CBDF0DC0C95AD84019
:1010A00071F490911502923050F0892F86959695A3
:1010B0009695890F35DD80E0DF91CF91089570E03E
:1010C00060E085ED9BE0E8CF81E0F6CF813C39F42C
:1010D00070E060E085ED9BE0ABDF80E00895823C4E
:1010E00029F470E060E086E298E0F6CF813B49F4B5
:1010F000CB016EE370E00E940A17892B71F7F3DCD5
:10110000ECCF813E51F4CB016EE370E00E940A17F0
:101110006F5F609332010BDBE0CF81E00895813C8B
:1011200039F470E060E085ED9BE082DF80E00895B7
:10113000823C29F470E060E086E698E0F6CF873BD9
:1011400031F470E060E087E39BE05ADFEFCF81E0AD
:101150000895BF92CF92DF92EF92FF920F931F9369
:10116000CF93DF93C82F8B0180911F0180931602CC
:10117000C0900C01F0900B0180910F01B0900C0217
:10118000811102C0BB24B394D090100180911A0148
:101190008111D0901B01DD2009F43FC041E0D4163D
:1011A00021F080910D018F15C0F1F6E9EF2ED0915D
:1011B0000802B8018C2F41DE80910802882309F4CF
:1011C000D2C1D11104C09091150290930B029C2FB3
:1011D0009D7F983021F510920402CA3019F40091D5
:1011E0000D0110E0C016110630F4F016110619F0CA
:1011F00010F000930D01C8016CD992DC81E080935E
:101200000301D0E08D2FDF91CF911F910F91FF90BF
:10121000EF90DF90CF90BF900895EF2CC8CFC13CE6
:1012200009F4A4C1C23C59F4809115028F1520F431
:101230008F2D76DCC3D9E5CF80910D01FACFC43C68
:1012400039F480E0FDDB70E060E08AE59EE092C169
:101250009FE49C0F923008F055C080910F018823C5
:1012600041F1C80168E170E00E940A17892B49F634
:10127000D091FB01D111C5CF2091150201151105A7
:1012800019F5C23BD9F48FEF8093030180910301DC
:101290006B2D70E0082E000C990B0E94ED1620912A
:1012A0001502820F911D15D980930D0139DC86D965
:1012B000A9CF6091170170E0C801D6CF2F1518F79C
:1012C000C21620F381E0E0CFE0911701F0E0CF01FA
:1012D00066E371E00E94ED168017910710F42F1558
:1012E00090F6CF016CE672E00E94ED168017910730
:1012F00068F6C21658F2F7DB70E060E08AE59EE01F
:1013000097DEC4CF9FE19C0F923020F480910301BF
:10131000819575CFC13009F084C00932110511F4EF
:10132000C0930301882371F100910B0210E090E05B
:10133000B8010E94ED16EC01E0910702F0E0BF0158
:101340000E941E17262FCE01801B910BBF010E9409
:101350001E17322F361B80910502909106026EE314
:1013600070E00E940A17832F90E00E94ED166CE354
:1013700070E00E940A17261B09F421E02093130253
:1013800020930D02C0911302209115024C2F421B95
:10139000550BCA016091DF017091E0016F5F7F4FD3
:1013A0007093E0016093DF01009709F42ACF40E0D9
:1013B00052E097FF06C040E051E0233810F040E4CF
:1013C00050E05695479597FD01969595879500971E
:1013D000C1F74617570708F014CFC217F0F4CFEF44
:1013E000C20FE0911602F0E0EE0FFF1FEE0FFF1F9D
:1013F000EA54FE4F0280F381E02D8FEF8C0F0995A8
:10140000882331F0D09113028C2F1ADBD093130272
:101410001092E0011092DF01F4CE2C1710F7C1E01A
:10142000DFCFC530A9F480911502833308F4E9CEEB
:1014300090E0801B910B8739910514F086E990E0CC
:101440008233910514F482E390E080931302D9CEA5
:10145000C63079F49091150280910D02981708F02A
:10146000D0CE090F111D90E08017910774F3C801C9
:10147000E7CFC73069F49091130280911502891764
:1014800010F48F5FE2CF981708F0BBCE8150DDCF0C
:10149000C83C99F0C63C49F581E090910F0191114B
:1014A00080E080930F0143D98CE02BDB8091150203
:1014B00090E00FD880930D01BCCE60912001709117
:1014C000210190E080E020E0AB01082E02C056959B
:1014D00047950A94E2F74170240F019688309105F0
:1014E00099F72230C8F2D1E08DCED0911A01D111F6
:1014F000FACFC33B51F4012B09F083CEDD2011F06C
:1015000086E9E82E8E2D0CDB7DCEC33E19F480914A
:101510000D01F9CFC53C61F48091150280930D0156
:1015200080E08EDA70E060E085ED91E181DD6ACEE9
:1015300070E060E083E29BE0C73B99F0CA3C59F45D
:101540008091150280931D018091160280932201E3
:10155000EED8C9DA57CECA3B31F670E060E08BE2D4
:101560009BE04EDD4FCEDD2309F431CE70E060E02C
:1015700085ED9BE05DDD45CE0F931F93CF938B01EF
:10158000C42F8830B9F4809116028093DE01109246
:10159000DD0180E055DA8091180281112EC0809122
:1015A000DD018F5F8093DD0170E060E080EC97E00B
:1015B00027DD23C0982F907F903B41F58091DD017E
:1015C000481710F18150883040F490910A02992315
:1015D00021F0909116028913D6DBC8016DE570E009
:1015E0000E940A17069771F48091DD018F5F809346
:1015F000DD01C81710F088E323DA80E0CF911F9156
:101600000F91089582E1F8CF80E0F6CF903E51F43B
:101610008091DD01882379F0481768F08091DE0120
:10162000B2DBC2CF8A3049F46091F9018091DD01CB
:10163000F90109957CD87CDCE0CF8930F1F6809106
:10164000DE01A1DBDACF25E232E043E095CF25E2EF
:1016500032E044E091CF24E037E045E08DCF24E64E
:1016600032E041E089CF2FEE32E042E085CF28EF33
:1016700032E042E081CF23E133E041E07DCF26E15B
:1016800033E043E079CF91E090930A022CE133E01C
:1016900048E072DF10920A020895CF93C0911A01B8
:1016A000C11125C0813C41F470E060E085ED9BE014
:1016B000BFDC8C2FCF910895823C29F470E060E06C
:1016C0008FE898E0F5CF833C51F48091230190E0BE
:1016D0000196877099278093230129D8EACF873B09
:1016E00031F470E060E083E39BE08ADCE2CFC1E0AC
:1016F000E0CFCF93833C31F54091160260912001F9
:1017000070912101842F98E0282F30E02F5F3F4F08
:1017100027703327822FFB0102C0F695E7952A95A3
:10172000E2F7E0FD02C0915079F74817B9F02BDBE2
:101730008091160280931F010E949703C0E08C2FB6
:10174000CF910895C0911A01C11108C0893B31F4AD
:1017500070E060E083E49BE053DCF1CFC1E0EFCFC9
:1017600080911702882369F080913E02813049F40C
:101770009EE894B980933E0210923F028FEE83B9A7
:1017800008950C94740190912401992369F0809339
:10179000FC0188E08093FA0181E08093FB01809155
:1017A00015028093FD0108954BC90F931F93CF93AA
:1017B0008B018830C9F480E0E6DF8091FB01082BC3
:1017C00010920E0280911F0180931602109208025F
:1017D000012B31F0C0E08C2FCF911F910F91089514
:1017E00081E080931702F6CF813051F469317105A1
:1017F00088F3C091FB01C111EDCF80931702EBCFAD
:101800008330A1F580910E028F3F19F08F5F809396
:101810000E0280911D01882361F080911E0190E0ED
:1018200062EC71E00E94ED160817190710F00E9493
:10183000D40280913402B8018438A8F480E490D9AD
:1018400080913F01882331F290E062EC71E00E94C8
:10185000ED168017910708F0BDCF70E060E08AE5D3
:101860009EE0E6DBB7CF80913C01E9CF813BB1F44C
:1018700081E090E00E94690286DF80911C01811165
:10188000A9CF80910F01811104C00831110508F41E
:10189000A1CF61E070E089EA98E0E3CF813EC9F32F
:1018A000813839F480910D0190E00E9469026BDF6C
:1018B00091CF60910D0170E0813C69F3823B81F42E
:1018C00010920E028091100190911A019111809155
:1018D0001B01811103C086E990E0E7CF86E9E7CFDD
:1018E000823E11F480E0E3CF66E970E0823C99F239
:1018F000833919F41092FB01F5CF833C29F470E091
:1019000060E08DE49BE0ADCF843C09F4A6CF8D3B35
:1019100041F4F89488ED8FBD88E880BF7894A8954D
:10192000FFCF8F3C29F470E060E08DEE92E099CF1C
:101930008A3BA1F40115110509F04DC0C0911A01AF
:10194000CC2331F0D0D810921A010E94970342CFD5
:1019500070E060E087E29BE053DB3DCF833B29F4FE
:1019600070E060E08CE29FE07CCF873CA1F4909136
:101970003C01892F82958F708F5F83708295807F65
:101980009F70892B80933C0170E060E0E9D80E9451
:101990009703A9D81FCF873BC9F481E08093090240
:1019A000C8018F739927892B61F420913C01822F04
:1019B0008F708F5F207F6BE00E94FE16922B9093BA
:1019C0003C01B80180913C01CBD804CF873E19F48B
:1019D00010920902BACFC0911A01C11123C08A3CEA
:1019E00039F481D881E080931A010E949703F3CEE5
:1019F000853C39F478D870E060E085ED91E118DB42
:101A0000EACE863C31F46FD870E060E080E292E18B
:101A1000F6CF893B39F4012B29F470E060E08FE2C6
:101A20009BE09ACFC1E0D7CE0F931F93CF93109234
:101A30001A0280917202909173029C012F5F3F4FB6
:101A400088279078822B932B909373028093720255
:101A5000909118022FB1822F8095881F8827881FA8
:101A6000809318029817B9F0109217028093180209
:101A700090917402892F27FD3EC080699F709F302E
:101A8000C1F58093740290E080E00E9452011092B0
:101A9000730210927202009172021091730280918F
:101AA00017028823A9F1B80183E00E94FA000E947E
:101AB00014010134110520F00F701127012BA9F436
:101AC0001092E10181E0809341024ADE8091E101C0
:101AD000811105C08FEE83B981E08093350280913A
:101AE000E1018F5F8F718093E101CF911F910F9181
:101AF00008958F5FC6CF8F7E95FD08C08068809364
:101B000074028091720290917302BFCF806CF7CF04
:101B1000C09174028C2F807F70E060E0803B09F000
:101B2000B80181E00E94FA00C4FF12C0C801C5FDDF
:101B30000CC00831110550F210927302109272021B
:101B4000C062C093740290E080E00E945201BECF58
:101B5000CC2309F4BBCFC5FF03C00E945601B6CF0A
:101B60000231110508F4B2CFC064C093740290E052
:101B700080E00E945201F1CF8091400281110E94C9
:101B8000B90380911A0281114FCF0895EF92FF920D
:101B90000F931F93CF93DF93EC0108E017E082ECE3
:101BA000E82EFF24F394209741F481E0DF91CF9158
:101BB0001F910F91FF90EF90089580910F02811176
:101BC00017C080911502823070F482E00E94F40008
:101BD000C7010197F1F780E00E94F400CDDF0E9479
:101BE00014012197E0CF80E00E94F400C801F1CFFA
:101BF00080E0DCCF0F931F93CF93DF93C82F06EACB
:101C0000811102C00CE0C1E0D091160210E0809179
:101C10002301B9D882E30E942005D0931602C8019F
:101C2000B5DF80912301AFD880E00E942005D093DA
:101C300016028AEF90E0AADFC15049F78D2FA3D892
:101C40008AE992E0DF91CF911F910F919FCFCF93BF
:101C5000DF9364E60E94FE16282F892F6AE00E9417
:101C6000FE16EC01222341F0822FC4DF8C2FC2DF4D
:101C70008D2FDF91CF91BECFC111F8CFF9CFCF9388
:101C8000DF93D82FC3E080910D010E94200588ECDE
:101C900090E07CDFDD2319F080E991E077DF80E0E0
:101CA0000E94200588EC90E071DFC15061F7DF9160
:101CB000CF9108950F931F93CF93DF93D82F8B016C
:101CC000873B81F480E00E94200581E08093090237
:101CD000C8018F739927892B09F4A8C0B801809196
:101CE0003D0159C080798039A9F4809112019D2F5E
:101CF0009F70913021F490911D019111892F0E94C4
:101D00002005D13041F50931110508F446C0D093C2
:101D10001702E4CF803819F480E00E942005D83003
:101D200081F710920E0270E060E080913D010E9408
:101D3000B005C0911A01C1118DC0DA3B09F08AC00B
:101D400070E060E08BE39BE05BD98C2FDF91CF915B
:101D50001F910F910895D33011F580910E028F3F9E
:101D600019F08F5F80930E0280911D01882361F02E
:101D700080911E0190E062EC71E00E94ED16081760
:101D8000190710F00E94D40280913402B8018438FF
:101D900008F0A5CF80E40E94B005C0E0D6CF70E087
:101DA00060E085ED9BE0D23C81F060910D0170E038
:101DB000D33C49F0D43B59F48CE00E948105109249
:101DC000740261E070E089EA98E032D9E6CFD53C50
:101DD00019F466E970E0F7CFD33B81F4C8016EE3F4
:101DE00070E00E940A17892B09F0A3CF70E060E031
:101DF00083ECDF91CF911F910F917BCCD73C11F5F4
:101E000090913D01892F82958F708F5F83708295AD
:101E1000807F9F70892B80933D0170E060E00E947D
:101E2000B0050E9497030E947305B7CF20913D0132
:101E3000822F8F708F5F207F6BE0E0D7922B909383
:101E40003D014CCFD73E09F074CF109209020E9499
:101E50009703A3CFC1E079CFFF920F931F93CF9346
:101E6000DF93D82F8B01C091020281E0809304029E
:101E7000C43081F4F09008028D2F0E941D07FF20CE
:101E8000A1F080910802811110C070E060E085ED42
:101E90009BE0CED8D830A1F0D13C09F09FC170E0D2
:101EA00060E085ED9BE0C4D839C0D83089F48091DA
:101EB00035018093FE0181E0809301010E94360389
:101EC000809125018093020281E08093020126C067
:101ED000D23C69F4109208028C2F90E0019669E0E0
:101EE00070E0ACD7809325018093020289C1D13B79
:101EF00011F580910001012B39F4909108018917A7
:101F000078F09FEF9093010190910101890F8093E8
:101F10000001811109C081E08093000180E0B2C11D
:101F2000823090F791E0EECF909108019817B0F7CA
:101F300090930001F3CFD13E59F480910101819536
:101F4000809301018091020181958093020158C123
:101F5000D23BD9F481E0809301018091000184306B
:101F600018F081508093000181E080930201C2301B
:101F700008F0A8C100FDD2CFEC2FF0E0E15FFE4FEA
:101F800080A18F3F59F28F5F5AC1D43BE9F40F73A0
:101F90001127012BB9F48091FE0190E0019663E0D6
:101FA00070E04CD7C82F809335018093FE010E94CA
:101FB00036038CE0CC2321F080ECC13009F480E6BC
:101FC0000E94810581E05EC1D43E19F40E9497030E
:101FD000F9CFD63C89F48091340183508A3050F097
:101FE000809334010E9436030E9497038CE00E9484
:101FF000810594CF8AE0F4CFD73C39F48091340145
:102000008D5F8D3368F38CE3EBCFD83C51F481E2E4
:10201000809334010E9436030E9497030E94730547
:10202000E5CFD13009F0BDC10932110511F4D093CB
:1020300001018091D901682F660F87FD609580911D
:10204000F70170E090E0C9D6292F8091D801682F60
:10205000660F87FD60958091F60170E090E0BDD637
:10206000290F8091D701682F660F87FD60958091B9
:10207000F50170E090E0B1D6920F60910001862FDB
:102080008695891708F496958091FE01823009F4AF
:102090009695690F7727771F80910802813091F418
:1020A000809105029091060225E0969587952A95E4
:1020B000E1F724E730E0A901481B590BCA018DD68E
:1020C000B901A8D6862F0E942005D091FE01D230FA
:1020D00059F000FD09C00E948401982F91708091F1
:1020E000D901890F8093D9018091D8019091D601AF
:1020F000890F8093D801C091D701D23089F50E9411
:1021000084016FE17BD69C0F9093D7010E948401DC
:102110008F7331F40E9484016DE070D69093D601E4
:10212000C091F601CC2339F00E9484018F7319F419
:10213000C150C093F601DD23B9F0C8018F7799270C
:10214000892B11F40E9436030932110519F481E03C
:102150008093020180911202080F00931202DECEDA
:102160000E94840165E2CECF0E948401811114C0D7
:102170000E948401282F30E0809107016091340192
:1021800070E090E02AD664E670E058D6C90156D6D1
:102190008093F6011092D801C091F501C33038F058
:1021A0000E9484018F7119F4C150C093F5010E94FF
:1021B00084018F7749F60E948401282F30E08091B6
:1021C00006016091340170E090E007D664E670E0AB
:1021D00035D6C90133D68093F501B6CFD23C09F488
:1021E0007BCED33C81F4809116028F5F87700E9472
:1021F000C306EC2FF0E0E15FFE4F80911602878B63
:102200000E9497038BCED43C21F48C2F90E008964B
:1022100066CED13B09F043C0C23098F400FD7ECEBB
:10222000EC2FF0E0E15FFE4F80A190910201891B4D
:10223000883020F08F3F19F48EEF01C088E080A332
:102240006DCEC83099F48091310190910201890FCF
:10225000823040F482E080933101809131010E940C
:1022600020055CCE8937B8F388E7F5CFC73009F091
:1022700055CE8091380190910201890F49F491E087
:1022800090933801DF91CF911F910F91FF900895A6
:10229000873918F48093380141CE86E9FBCFD13ECF
:1022A00009F450CED23B09F45FCED23E09F4A8CF58
:1022B000D53CD1F470E060E085ED91E10E94180812
:1022C00080E0CDCFC83031F480913101833028F2E5
:1022D0008150C1CFC73009F021CE809138018230C2
:1022E00008F41CCE8150D6CFD13009F42DCFD63C86
:1022F00039F5C33071F4809133018F5F813138F447
:10230000809333010E9497030E94730507CE80E1FA
:10231000F7CFC53051F4809136018C50863418F0D7
:1023200080933601EFCF86E4FBCFC63009F0F6CDBF
:1023300080913701882331F3815080933701E2CFB8
:10234000D73CD9F4C33039F48091330181508C30BB
:10235000B8F68CE0D5CFC53039F480913601845F72
:102360008739F0F286E9DCCFC63009F0D7CD80910D
:1023700037018E3138F68F5FE0CFD83C09F022CE9E
:102380008EE0C33009F4BCCFC53021F482E88093DD
:102390003601C4CDC63009F0C1CD85E08093370148
:1023A000BDCDD13C09F01DCF7ACD0F931F93CF93B4
:1023B000DF93D82F8B01883031F480910402882379
:1023C00011F088E049DD8D2F8079803999F481E022
:1023D00080930302C0910402CC2311F0C0E004C03A
:1023E00080910D010E9420058C2FDF91CF911F91CC
:1023F0000F910895803831F41092030280E00E941A
:102400002005ECCFC1E0D13079F7C0910302CC2395
:1024100059F080910402882309F3B80181E0DF912B
:10242000CF911F910F9118CD80E00E94990180E01B
:102430000E9412050733114088F2D0931702D4CFBF
:10244000FF920F931F93CF93DF93D82F8B01F090C0
:102450000D018079803909F03EC0ED2FEF70E43036
:1024600090F010920302C0E0F0920D01D83009F014
:1024700040C0B80188E01EDC8C2FDF91CF911F9106
:102480000F91FF90089591E090930302F0E0E15FD7
:10249000FE4F80A92FEF280F263988F480930D0175
:1024A0001092040280911F0180931602C0E0809177
:1024B00003028823C9F2B8018D2F77DFD5CF90931F
:1024C00004028739A0F08759990B69E070E0B6D40F
:1024D00080930202EBCF803841F41092030280E037
:1024E0000E94200581E080930F02C1E0E0CFC0E0B0
:1024F000E2CFD13061F480910302811117C0B8019D
:1025000081E0DF91CF911F910F91FF90D3CBD3301A
:1025100019F4B80183E0F5CFD63C51F40E9473055D
:1025200070E060E085ED9BE00E941808C0E0A4CF59
:10253000D73B09F0A1CF70E060E08FE39BE00E9401
:102540000008F4CF1F920F920FB60F9211242F9311
:102550003F938F939F93AF93BF93EF93FF9380919C
:102560003F028823E9F0E0913E0220B131B1F0E072
:10257000EE0FFF1FDF01A65CBD4F2D933C93EA5C7D
:10258000FD4F808191818217930708F401962817E7
:10259000390708F401979183808381E0809340029A
:1025A00081E080933F02FF91EF91BF91AF919F91A6
:1025B0008F913F912F910F900FBE0F901F90189504
:1025C0001F920F920FB60F9211248F9381E0809388
:1025D0001A028F910F900FBE0F901F9018951F92A7
:1025E0000F920FB60F9211248F9381E080931902FE
:1025F0008F910F900FBE0F901F9018951F920F9202
:102600000FB60F9211242F933F938F939F93809136
:10261000760290E090936D0080936C002091770299
:1026200030917802822F8F7790917502890F220F57
:10263000232F221F330B3195982F991F9927991F0C
:10264000290F209376028F77809375029F918F9147
:102650003F912F910F900FBE0F901F901895F894F7
:1026600085B7877F85BF90E088ED0FB6F894A89571
:102670008FBD90B7977F90BF0FBE81E088B989E08A
:102680008CB98CE380BB82EA8093720081E18093F5
:1026900071008FEF90E0909369008093680080E86C
:1026A00082BB87BD8CB788608CBFA89580E480BF53
:1026B00057D8789481E00E94600170E060E088E380
:1026C00098E00E94000810920F020E9473059FB1CB
:1026D000892F8095881F8827881F8093180297FF6D
:1026E000A4C08FE091E09093110280931002F894BF
:1026F00090E080E007D4853A79F4009110021091BF
:102700001102C1E0D0E0CE01FDD3F80181938F0129
:102710002196C633D105B9F7789480911D018111B6
:102720000E94D40270E060E089E79BE00E9400080C
:1027300061E070E085ED9BE00E9400082224239474
:1027400065E0362E77E2472E512C88248394912C15
:10275000F5ED6F2EFBE07F2E0E94140180911D028B
:1027600090911E02009751F060911B0270911C0223
:102770000E94180810921E0210921D0280911702EA
:10278000882359F180E00E942005A89583E480BF4A
:102790001F989FB1892F8095881F8827881F809355
:1027A000180297FFF6CF0E9456018CB788608CBF45
:1027B0001092400210921A02109219028091170290
:1027C000811168C082E080930E018CB7877F8CBF37
:1027D0000E94B00BA89580E480BFCED910920F0262
:1027E0008091300290913102F2E08D3E9F0709F016
:1027F00089C0C0E7D0E007E710E0FE018491805374
:10280000F12C803108F06DC0F5D98CE291E0BED991
:1028100021960C171D0789F770921E0260921D0207
:1028200010921C0210921B0297CFC0E08C2F0E94C6
:10283000200583E190E0AAD98C2F86950E9420057F
:1028400083E190E0A3D99FB1892F8095881F8827C5
:10285000881F8093180297FD1AC0CF5FC03431F7EC
:1028600065E181E00E94F8020E949703C6E98C2F7F
:102870000E94200584E090E089D9C150C1F731CF92
:102880008C2F0E9420058DE090E080D9C150C111AD
:10289000F7CF27CF809141028823F9F086B78F794F
:1028A000806286BF86B7806186BF889586B78F7E37
:1028B00086BF809119028111109217028091400207
:1028C000882321F0209235020E94B90380911A02D8
:1028D000882309F473CFA8D871CF86B78F79806425
:1028E000E0CF8F2D8295880F80720E94200580E1B5
:1028F00090E04CD9F394F9E1FF12F3CF8AE992E02A
:1029000045D983CF2FE08C32920799F031E1853D94
:10291000930729F0E2E180329E0709F0CBC12091B4
:102920000402213009F0C6C120910302222309F4D8
:10293000C1C1C0910202EC2FF0E0DF01A15FBE4FE8
:1029400057968C91579780931602C93008F004CFA0
:10295000E555FB4E86C2B414B414C814E714AC1386
:102960007115DC151B1654159096DC9186E90E94B2
:10297000200583E090E0CC2319F08D2F869590E020
:1029800005D980E00E9420058D2F90E0FFD8E4CE8D
:10299000D0910D01C0E081E0CC2319F0C53019F4CD
:1029A00085E00E94C3068D2F0E94200581E290E001
:1029B000EDD880E00E94200582E490E0E7D8CF5F68
:1029C000CA3049F780911F0180931602C5CE0E943C
:1029D00084018F73082F10E00E94840167E00ED2FB
:1029E000E40102C0CC0FDD1F9A95E2F70E9484013A
:1029F000632D04D2940102C0220F331F9A95E2F78F
:102A0000C20FD31F0E94840190E0BE0117D2C80FED
:102A1000D91FC739D10514F0C6E9D0E08C2F0E9428
:102A20002005C801B3D86E0153E0D594C7945A95D8
:102A3000E1F7CC20B1F1D12CC801A8D87E01EC1867
:102A4000FD08E701F7FE02C0D0E0C0E08C2F0E9435
:102A500020050E948401837039F4C80197D8CE0103
:102A6000959587950E94200532E0E316F10424F73E
:102A70000E94840160913301C1D1840102C0000F22
:102A8000111F9A95E2F70E948401E801219790E0D6
:102A9000C823D923C00FD11F80E00E942005CE019A
:102AA00075CFCC24C394C7CFC0913101CC0FC739A7
:102AB00008F0C6E9D4E08C2F0E94200585E090E064
:102AC00065D8809131010E94200581E490E05ED8B4
:102AD000D15089F780ED92E059D880E00E9420051E
:102AE0003BCE8091F80190910901891342C0109268
:102AF000F80110913601812F90E067E070E06DD110
:102B0000EC01111119C080E00E9420050E9484018F
:102B1000632D74D1892F90E0019668EE73E05DD14A
:102B200035D80E94840167E069D19E5F990F990FA3
:102B3000990F9093090110CE812F0E94200589E002
:102B400090E024D8CE0133E0969587953A95E1F749
:102B50000E9420050E948401632D50D1692F70E0EE
:102B60006F5F7F4FC2016AD1CB0110D811502797F8
:102B7000C8CF0E9420058DE090E008D88091F80130
:102B800090E0880F991F63E070E044D1862F0E9487
:102B900020058DE090E00E94C60D8091F8018F5FC6
:102BA0008093F80190913601981708F0D5CD809167
:102BB00009018093F801D0CDC091010281E08C0F12
:102BC00080930102C7FDC19585E9A82EB12CC12CC7
:102BD000D12CE12CF12C00E010E02C2F30E040E073
:102BE00050E060E070E080E090E041D107E06FD11C
:102BF000AC2E00E03CD107E06AD100E038D107E01C
:102C000066D100E034D107E062D181E0820F0E94FA
:102C1000200580910102811109C00E942005809148
:102C2000370190E068EE73E0D8D0B0CE80913701E4
:102C300090E00A96ABCE9091FF019F5F9093FF01C9
:102C400080910002E82FF0E0E35BFE4F20812F3FF0
:102C500021F430910A01931731F0022E000C330B4E
:102C600092171306A9F48F5F809300021092FF0160
:102C700080FF1EC0C0913801D0E00E9484018170A5
:102C800002C0D595C7958A95E2F78C2F0E94200542
:102C900080910002893149F4109200020E9484015F
:102CA00062E3ACD09F5F90930A018AE090E06ECE21
:102CB00080E0ECCFEBE08D349E07D9F488EE93E012
:102CC0000E94C60D80913402869586950E94270E3B
:102CD00090913402892F880F867096959170892B78
:102CE0000E94270E80911A01811196CD88EE93E003
:102CF0004DCEF8E08F389F0729F4809132020E9470
:102D0000270EF4CF28E086369207C1F4809118028E
:102D1000811122CD80910D010E94200584E690E072
:102D20000E94C60D80E00E9420058091320190E053
:102D300068EE73E052D08456910928CE86529840AE
:102D400061F480E00E943F0E81E00E943F0E80E02F
:102D50000E943F0E80ED97E019CE809124018823D8
:102D600089F18091FB01882369F12091150230914E
:102D7000FC0123130AC0822F0E9420051092FB0140
:102D80008091FD0180931402E7CC6091FA01231732
:102D900050F4832F821B32D0811101C081E0820F59
:102DA0000E94200582CF862F90E06EE170E015D062
:102DB0006091FD01631B70E041D0EB0121968FEF24
:102DC000820F6BCE86B78F7986BF86B7806186BF4C
:102DD000889586B78F7E86BFBFCC0024552704C058
:102DE000080E591F880F991F009729F0769567954F
:102DF000B8F37105B9F7802D952F0895991B79E0E7
:102E000004C0991F961708F0961B881F7A95C9F77A
:102E100080950895AA1BBB1B51E107C0AA1FBB1FC9
:102E2000A617B70710F0A61BB70B881F991F5A9556
:102E3000A9F780959095BC01CD01089597FB072EC9
:102E400016F4009406D077FD08D0E4DF07FC05D027
:102E50003EF4909581959F4F0895709561957F4FB1
:102E60000895EE0FFF1F0590F491E02D0994DF9374
:102E7000CF939F92A0E49A2E0024D001E001F001AC
:102E800016950795F794E794D794C794B794A794A9
:102E900048F41068A20FB31FC41FD51FE61FF71F09
:102EA000081E191E220F331F441F551F661F771F50
:102EB000881F991F9A9421F79D01AE01BF01C0019F
:102EC00011249F90CF91DF91089597FD1094002ECB
:102ED000083098F00850232F342F452F562F672F96
:102EE000782F892F912DF4CF159497958795779505
:102EF000679557954795379527950A95AAF7112411
:102F0000002D0895E199FECF1FBA8EBBE09A992754
:102F10008DB30895262FE199FECF1FBA8EBBE09A9C
:102F200081500DB2021639F01CBA2DBB0FB6F894C1
:0C2F3000E29AE19A0FBE0895F894FFCFDA
:102F3C00180101010004192D6640018201460200AE
:102F4C0001010A0A828282010705010000000000CB
:102F5C000100000001040000000000000000002936
:102F6C004332020E2100820546072D001839040059
:102F7C00781E98010504031101140117010104FFC7
:102F8C00020503FF05071B0105030AFF1403FF02DB
:102F9C00FF0AFFFFFF01000000000000000000001E
:102FAC00010102020201010100000000000000000A
:102FBC000000000201000000000000000100000001
:102FCC0000000000000100060C0510041403190297
:102FDC001E01FF010000740184028C0394049C0503
:102FEC00A406B007FF07D706FE01E701FC01EA01C2
:102FFC00FC01ED01FC01F001FC01F301FC01F60107
:06300C00FC01F901FC01CA
:00000001FF
