:100000006BC1000086C1000084C100000C94D413B1
:1000100080C100000C94C5137CC100007AC10000AF
:1000200078C1000076C1000074C1000072C10000F8
:1000300070C100006EC100000C9487136AC10000FB
:1000400068C1000066C1000064C1000062C1000018
:1000500060C100005EC100005CC100005AC1000028
:1000600058C1000056C1000054C1000052C1000038
:10007000303231312E302E000001050414101115DC
:10008000FF3FFF3FE62D6239DF2397302F35833660
:100090003536F8342533F130EB33E130D431E1310A
:1000A000752EE32D352FCD2D412C342C632AD929E3
:1000B00016292A2820270126D42452240B235A2229
:1000C0000B2141206B1F231E491D6B1C8C1B611AC9
:1000D0008A1974186A17A6167D1597148E1396122E
:1000E000AD11AC10BE0FBF0EB40DBF0CC20BC00AD9
:1000F000D509D008CE07E306E805E104E203ED02E6
:10010000F101FF00FF00FF00FF00FF00FF00FF0004
:10011000FF00FF00FF00FF00FF00FF00FF00FF00E7
:10012000FF00FF00FF00FF00FF00FF00FF00FF00D7
:10013000FF00FF00FF00FF00FF00FF00FF00FF00C7
:10014000FF00FF00FF00FF00FF00FF00FF00FF00B7
:10015000FF00FF00FF00FF00FF00FF00FF00FF00A7
:10016000FF00FF00FF00FF00FF00FF00FF00FF0097
:10017000FF00FF00FF00FF00FF00FF00FF00FF0087
:10018000FF00FF00FF00FF00FF00FF00FF00FF0077
:10019000FF00FF00FF00FF00FF00FF00FF00FF0067
:1001A000FF00FF00FF00FF00FF00FF000000000055
:1001B000000000000000000000000000000000003F
:1001C000000000000000000000000000000000002F
:1001D000000000000000000000000000000000001F
:1001E000000000000000000000000000000000000F
:1001F00000000000000000000000000000000000FF
:1002000000000000000000000000000000000000EE
:1002100000000000000000000000000000000000DE
:1002200000000000000000000000000000000914B1
:100230001E29343F4B5763707D8A97A5B3C2D0E027
:10024000EFFF0001010202030405060708090B0C79
:100250000E10111316181A1D1F2225282B2E3135AA
:10026000383C3F43474A4E5256595D606367696C5C
:100270006E70727374747372706D6A655F595147F2
:100280003C30221314151617181A1B1C1E1F20228F
:10029000242527292B2D2F313335383A3D3F424530
:1002A000484B4E5154585B5F63676B6F73777C812B
:1002B000858A8F959A9FA5ABB1B7BDC4CBD2D9E043
:1002C000E7EFF7FFFFFFFFFFFFFFFFFFFFFFFFFF6E
:1002D000FFFFFFFFFFFFFF0011241FBECFEFD4E0A1
:1002E000DEBFCDBF11E0A0E0B1E0E6E8F0E302C080
:1002F00005900D92A63DB107D9F722E0A6EDB1E039
:1003000001C01D92A537B207E1F70E94E3130C94D8
:10031000411876CEF89498ED9FBD83BF78940895E8
:10032000482F9B01E2E4F2E090E080E0508151111F
:100330000BC063E070E00E949217FC01EE5BFD4F82
:1003400040833283218305C0019633968031910525
:1003500069F70895EF92FF920F931F93CF93DF9366
:10036000D0914202D11107C0DF91CF911F910F911F
:10037000FF90EF900895E0904302F0904402C09106
:100380001F02C1500C2F000F110B0E5D1D4FC7FD3A
:1003900009C0D801FE91EE918D01B7018D2F09950D
:1003A000811114C0E2E4F2E083818083848195812D
:1003B000928381833396B2E0EF36FB07A9F7109260
:1003C0006F021092710210927002CACFC150DFCF3B
:1003D000BC0180917402A4CF109274021092730237
:1003E0001092720281E080930F0208950F931F9381
:1003F000CF93C82F08EA17E0C15020F4CF911F9186
:100400000F91089582E086DFC8010197F1F780E03F
:1004100081DFF2CF86E884B9E1E6F0E08081826096
:10042000808388E082B910923E0210923F028FEEE4
:1004300083B908958BB182FB882780F991E08927E1
:10044000809318020895E0910401F091050131961E
:10045000FB70F460F0930501E093040180911202B7
:100460008B5A80931202E491809112028E0F0895AC
:10047000CF93DF9300D01F92CDB7DEB72091440118
:10048000309145014091460129833A834B83FE0117
:10049000319650E040E0A1E0B0E090E02191BD0154
:1004A00002C0660F771F2A95E2F79B01BC01042E5C
:1004B00002C0759567950A94E2F7637029F0613080
:1004C000D1F030B3322B1BC060B3322F3095262FC2
:1004D000232320BB22B3232322BB21B3232321BB0D
:1004E0004E5F5F4F46305105C9F60F900F900F9049
:1004F000DF91CF91089560B3322F3095362330BB12
:1005000032B3322B32BB31B3232BE9CF811182E0DE
:10051000AFCF81118AE0ACCF811188E0A9CF8111E2
:1005200088E2A6CF811180E2A3CF811182E2A0CF21
:1005300081118AE29DCF81E00895689A90E0FC01E4
:10054000EE5BFD4FE4914E2F50E0FC01E455FE4F71
:10055000E4912E2F30E0FC01EE0FFF1FE058FF4F1B
:100560006591749150936D0040936C0030936B00D3
:1005700020936A00809115029B0120523109882343
:1005800039F040916E0050916F0024173507B8F391
:100590007093690060936800811104C010926F002D
:1005A00010926E00089590E0FC01EE5BFD4FE49127
:1005B0002E2F30E0FC01E455FE4FE491F0E08091F5
:1005C0006C0090916D00892B19F42F3F310551F08B
:1005D00080916C0090916D008F3F910541F5211540
:1005E000310529F530936D0020936C0080916A00ED
:1005F00090916B008E179F07C0F580916A009091D3
:100600006B00019690936B0080936A0080916C0060
:1006100090916D008217930741F420916A00309108
:100620006B0081E02E173F0709F080E0089580916C
:100630006C0090916D008217930750F480916C00CC
:1006400090916D00019690936D0080936C00CECFD9
:1006500080916C0090916D002817390738F68091D1
:100660006C0090916D000197EECF80916A0090919F
:100670006B00E817F90750F680916A0090916B00C3
:100680000197C0CFCF93DF9300D000D000D0CDB77B
:10069000DEB720910F014091300250913102435159
:1006A0005C4009F422E0843059F460931B012696E3
:1006B0000FB6F894DEBF0FBECDBFDF91CF91089586
:1006C0006623A9F3823019F497E9961B692F96E007
:1006D000E7E4F1E0DE01119601900D929A95E1F7C1
:1006E0008150990B880F991FA1E0B0E0AC0FBD1F9E
:1006F0008A0F9B1FDC01ED91FC91E20FF11D6083DD
:10070000D6CF813011F4609343010895BF92CF9208
:10071000DF92EF92FF920F931F93CF93DF93EC0141
:1007200040910F0190911A01E42F9111E2E0F0E065
:10073000E15FFE4F228120930C01858180930B01A4
:10074000E92FF0E0E15FFE4F3185622F70E0442336
:1007500089F0313079F4860F972F911D9595879503
:10076000DF91CF911F910F91FF90EF90DF90CF908D
:10077000BF900895C617D70794F18C171D0684F310
:10078000411102C08C2FECCF821B432F4150550BDF
:100790008A01E82EF12CC701BA010E94C3176093A9
:1007A0000C026695E62FF0E0822FD12CC12CB12CE3
:1007B000B316B1F2C601B8010E94AF17822F860F9F
:1007C000CE0CDF1CAE01481B510957FF03C05195E9
:1007D00041955109E417F5071CF6B394E9CF822F30
:1007E000BFCFEFE0F1E0868580930D018389808B98
:1007F00080931602089580910802882351F0909109
:10080000150290930B028093070210920602109239
:100810000502089581E00895823019F460933E0145
:1008200008956111609339010895662369F081305C
:1008300099F48091320290913B01891B681B60936F
:100840003B0182E080930E0180913A01873418F0D9
:1008500086E480933A010895635E60933A01F4CF91
:1008600060933F010895E82FF0E0E15FFE4F60AB39
:10087000089520912001309121014FEF480F81E030
:1008800090E002C0880F991F4A95E2F7662339F07D
:10089000822B932B909321018093200108958095C2
:1008A00082239323F7CF2091340187E8821B809322
:1008B000080130E08091FE01813011F18230A9F110
:1008C0008DE28093070189E180930601C9016EE101
:1008D00070E00E949217E4E6F0E0BF010E94C317A7
:1008E0006093F701C9016DE270E00E949217BF01A9
:1008F0000E94C3176093F601C90169E170E02CC042
:10090000109206011092F50182E380930701C9015C
:1009100062E370E00E94921764E670E00E94C317E1
:100920006093F7016093F60108951092F70184E156
:100930008093070180E580930601C90164E170E0BE
:100940000E949217E4E6F0E0BF010E94C317609393
:10095000F601C90160E570E00E949217BF010E9494
:10096000C3176093F5010895CF93DF938FE091E073
:100970009093110280931002F894D0E0C0E0E091CF
:100980001002F0911102EC0FFD1F60812196CE0143
:100990000E942F18C533D10591F765EA90E080E0F9
:1009A0000E942F187894DF91CF9108951092400201
:1009B00080B191B1209112028295869586958370BF
:1009C000990F990F890F820F80931202809135023F
:1009D000882309F449C01092350280913E0290911B
:1009E0001702992351F01F981092410291E0209133
:1009F0003E02211190E090933E0281115BC08091F4
:100A00000E01882391F180913A0290913B029093DC
:100A1000370280933602609139016750262F220FEA
:100A200060E671E00E94AF17620F6093340280911C
:100A3000F4018823B9F181508093F4018091170269
:100A4000811109C08EE884B981E080933E02109242
:100A50003F028FEE83B980910E01882329F08091A7
:100A60000E01815080930E0108952091170280910C
:100A7000360290913702222371F220913A0230918E
:100A80003B0243E0369527954A95E1F7280F391F39
:100A900053E0969587955A95E1F7A901481B590BA4
:100AA000CA01B5CF643750F670E060E084E038DC0E
:100AB00085E0C2CF813079F680910E01811104C0AA
:100AC00080911702882341F080913C0290913D0271
:100AD0009093390280933802209138023091390284
:100AE00060913B01A901A6E056954795AA95E1F7CB
:100AF000062E000C770B460F571F4E505140509357
:100B0000330240933202B5E036952795BA95E1F766
:100B100080910E01882301F13093E5012093E401D7
:100B20003093E7012093E6013093E9012093E80137
:100B30003093EB012093EA013093ED012093EC0117
:100B40003093EF012093EE013093F1012093F001F7
:100B50003093F3012093F20180911702811139C083
:100B60008091E301E82FF0E0EE0FFF1FEC51FE4F04
:100B700040815181D901A41BB50BAD013183208384
:100B80008F5F87708093E301CD01880F991F880FD5
:100B9000991F820F931F20913A0130E0261B370BDB
:100BA000225F3E4F220F331F821B930B23E0181648
:100BB0001906ACF401972150D1F71816190654F50F
:100BC00057FD44C02091E20112166CF4281B2093BB
:100BD000E2018091170281113ECF1CDC3CCF0097CF
:100BE00051F30196E8CF880F991FBC01635071093A
:100BF00077FF02C06F5F7F4F7595679516161706D2
:100C000014F061E070E088E1861B8093E20185E0EA
:100C100087DBDFCF8C3FBFEF9B07C4F457FF16C0C5
:100C20002091E20127FF02C02450D0CF24EE281BE0
:100C30002093E20120913402263758F26CEF7FEFC7
:100C4000681B790B7595679586E0E2CF8091340239
:100C5000853708F4BECF70E060E087E0D9CF882305
:100C600021F0813031F0829A05C0829892988A985A
:100C700008958298929A8A9A0895CF93C82F809166
:100C80001502811109C0CC2339F080914301C817A6
:100C900018F4F3DF82E0AADB8091170281110BC008
:100CA000E7DB91E0C11101C090E081E0C33308F4BB
:100CB00080E0890FD4DFC1111FC010926D00109227
:100CC0006C0010926B0010926A0010926F001092EC
:100CD0006E006898809115028C1380931402C09363
:100CE0001502C093130282E0C43020F081E0CC30C2
:100CF00008F080E0CF910ECBE0911602F0E0EE0F0D
:100D0000FF1FEE0FFF1FEA54FE4F0190F081E02D10
:100D10008FEF8C0F0995DECFCF93C091150282E340
:100D20008C0F873908F080E0A8DF83E05FDB8C2F31
:100D3000CF91A3CFCF93DF93D82FC091150280E03E
:100D40009CDF8D2F8695869551DB8C2FDF91CF917F
:100D500094CF80930D0290911502282F291B98178C
:100D600010F0292F281B3091FB01311106C0309162
:100D70002401332369F0223058F08093FC0184E091
:100D80008093FA0181E08093FB019093FD01089527
:100D900074CF0F931F93CF93DF93E82F20913402EA
:100DA0008FEF820F833740F480E062DB80E0DF91D9
:100DB000CF911F910F9153CFDE2FD295DF70EF703F
:100DC00080910902811125C080913E0190E053E09D
:100DD000880F991F5A95E1F768177907F8F4309151
:100DE0000E0238171906D4F43323C1F0C1E0809104
:100DF00014028F3008F4C0E081E0D23009F080E0C6
:100E0000C82BCF5F80911702882309F46DC080E062
:100E10005EC0C2E0E73020F4F0E018C0CD2FFACF7A
:100E2000E73069F50091DB0110E00F5F1F4F0BDB2E
:100E300065E00E94A3179801290F311DC90166E0E2
:100E400070E00E94C3178093DB01FC01E758FF4F5D
:100E5000E491C33009F080C08091DA0190E00196FE
:100E600063E170E00E94AF178093DA018D579E4FC7
:100E7000DC01CC91D33009F08DC0DC2F8EC0E8307E
:100E8000C9F480911702811113C083E090E06823B8
:100E90007923672B51F48091DB0190E0019666E0A5
:100EA00070E00E94C3178093DB01E091DB01B4CFB7
:100EB0008FE0ECCFE93009F4A5CF209132023091D8
:100EC000330280E037FF1CC0E0E029C08E5FE82FCE
:100ED000F0E0EC55FE4F90812917C0F73197E08183
:100EE000F0E0E858FF4FB4CFCB019695879563E0CB
:100EF00070E00E94AF17FC01EE0FFF1FA7CF8E5FBF
:100F0000E82FF0E0EA56FE4F908192171306B9F3EE
:100F1000B4F33197E081F0E0E858FF4FE49180911D
:100F20001702811196CFCB019695879563E070E00B
:100F30000E94AF17C82FD330F1F0D43071F58091F3
:100F4000DA0190E001966DE170E00E94AF178093A6
:100F5000DA018A599E4F1BC0C43069F78091DA01CB
:100F600090E001966DE170E00E94AF178093DA0186
:100F70008A599E4F7DCF8091DA0190E0019663E11E
:100F800070E00E94AF178093DA018D579E4FDC010D
:100F9000DC9103C0D43009F470CFCC2321F0C130F0
:100FA00019F0EE0F01C0E0E08E2F62DA8D2FD33002
:100FB00008F4FDCE82E0FBCECF93DF939091160232
:100FC000981759F0C82FD091150280E056DEC093D3
:100FD00016028D2FDF91CF9150CEDF91CF910895E2
:100FE000813019F410921D010895823019F4609334
:100FF0001E010895833019F460931C010895843014
:1010000019F4609310010895853011F46093240160
:101010000895883041F4109208021092060210924E
:10102000050280E00895813B81F48091080281509F
:10103000833048F483E08093080280930702109283
:1010400006021092050281E00895853BB1F4CB01C0
:101050006EE370E00E94AF17892B19F780910802A8
:101060008A3FF8F68B5F8093080280930702109204
:1010700006021092050250DED4CF813021F7809114
:10108000050290910602019688382EE0920728F416
:101090009093060280930502C4CF1092060210922C
:1010A000050280910802882309F4BBCF8150809308
:1010B0000802B7CFFF920F931F93CF93DF938C015A
:1010C000EB01F42E8091300290913102892B31F0A6
:1010D000E0913002F091310289E0099510933102DC
:1010E00000933002012B39F0E0913002F09131028F
:1010F000BE018F2D099581E080930F02DF91CF9182
:101100001F910F91FF900895CF93DF93E0911F02FD
:10111000D0E0C0E0EE2351F0E150E0931F02F0E098
:10112000EE0FFF1FE05EFD4FC081D181E0911F02F5
:1011300090E080E0EE2341F0E150FF0BEE0FFF1F47
:10114000E05EFD4F808191814AE070E060E0B2DFB7
:10115000CE01DF91CF910895883039F41092F901D2
:101160001092DC0180E089DD0CC0813001F59091A6
:10117000DC01911108C06032710518F08093DC0128
:101180002BD980E00895913081F46B3B710520F0FC
:1011900082E08093DC01E6CF6115710591F3660F63
:1011A000660F862F88708E5EDECFAEDFEACF813885
:1011B00011F0813E31F791E09093DC01813E41F4E2
:1011C0008091F901865F8093F90106D98BE4CBCF3A
:1011D0008091F9018F5FF7CF9C0190911F029830A9
:1011E00088F4E92FF0E0EE0FFF1FE05EFD4F318342
:1011F00020839F5F90931F0248E0C9015BDF8091CD
:101200001F0208958FEF08950F931F93CF93DF93DD
:10121000EC018B0179DFB801CE01DF91CF911F91F5
:101220000F91DACF813C39F470E060E080EC9CE013
:10123000EBDF80E00895823C29F470E060E089E310
:101240009CE0F6CF81E00895CF93DF93843041F5A1
:10125000C0913002D091310280E001DD80E008D9F8
:1012600080E1C131D80731F469E170E085E999E0A6
:10127000CBDF0DC0C559D94071F490911502923061
:1012800050F0892F869596959695890F62DD80E0BE
:10129000DF91CF91089570E060E080EC9CE0E8CFB2
:1012A00081E0F6CF813C39F470E060E080EC9CE0B6
:1012B000ABDF80E00895823C29F470E060E082E1D9
:1012C00099E0F6CF813B49F4CB016EE370E00E94D8
:1012D000AF17892B71F720DDECCF813E51F4CB01A4
:1012E0006EE370E00E94AF176F5F609332013CDBEA
:1012F000E0CF81E00895813C39F470E060E080EC5B
:101300009CE082DF80E00895823C29F470E060E098
:1013100082E599E0F6CF873B31F470E060E083E24C
:101320009CE05ADFEFCF81E00895BF92CF92DF9229
:10133000EF92FF920F931F93CF93DF93C82F8B01F0
:1013400080911F0180931602C0900C01F0900B0158
:1013500080910F01B0900C02811102C0BB24B394A4
:10136000D090100180911A018111D0901B01DD20D5
:1013700009F43FC041E0D41621F080910D018F1592
:10138000C0F1F6E9EF2ED0910802B8018C2F41DEB2
:1013900080910802882309F4D2C1D11104C0909130
:1013A000150290930B029C2F9D7F983021F510928F
:1013B0000402CA3019F400910D0110E0C0161106A4
:1013C00030F4F016110619F010F000930D01C80169
:1013D0009DD9BFDC81E080930301D0E08D2FDF91A8
:1013E000CF911F910F91FF90EF90DF90CF90BF9022
:1013F0000895EF2CC8CFC13C09F4A4C1C23C59F4F4
:10140000809115028F1520F48F2DA3DCF4D9E5CF40
:1014100080910D01FACFC43C39F480E02EDC70E0FD
:1014200060E081E49FE092C19FE49C0F923008F05D
:1014300055C080910F01882341F1C80168E170E037
:101440000E94AF17892B49F6D091FB01D111C5CF6E
:10145000209115020115110519F5C23BD9F48FEF42
:1014600080930301809103016B2D70E0082E000C26
:10147000990B0E94921720911502820F911D46D957
:1014800080930D0166DCB7D9A9CF6091170170E098
:10149000C801D6CF2F1518F7C21620F381E0E0CF90
:1014A000E0911701F0E0CF0166E371E00E9492172E
:1014B0008017910710F42F1590F6CF016CE672E0BB
:1014C0000E9492178017910768F6C21658F224DC22
:1014D00070E060E081E49FE097DEC4CF9FE19C0F65
:1014E000923020F480910301819575CFC13009F0CD
:1014F00084C00932110511F4C0930301882371F1EE
:1015000000910B0210E090E0B8010E949217EC01EC
:10151000E0910702F0E0BF010E94C317262FCE0121
:10152000801B910BBF010E94C317322F361B809185
:101530000502909106026EE370E00E94AF17832FC0
:1015400090E00E9492176CE370E00E94AF17261B98
:1015500009F421E02093130220930D02C09113029D
:10156000209115024C2F421B550BCA016091DF01DF
:101570007091E0016F5F7F4F7093E0016093DF0136
:10158000009709F42ACF40E052E097FF06C040E000
:1015900051E0293710F040E450E05695479597FD0B
:1015A0000196959587950097C1F74617570708F05C
:1015B00014CFC217F0F4CFEFC20FE0911602F0E0A3
:1015C000EE0FFF1FEE0FFF1FEA54FE4F0280F38164
:1015D000E02D8FEF8C0F0995882331F0D091130205
:1015E0008C2F4BDBD09313021092E0011092DF019D
:1015F000F4CE2C1710F7C1E0DFCFC530A9F48091ED
:101600001502833408F4E9CE90E0801B910B8739F2
:10161000910514F086E990E08234910514F482E497
:1016200090E080931302D9CEC63079F490911502E0
:1016300080910D02981708F0D0CE090F111D90E08F
:101640008017910774F3C801E7CFC73069F4909110
:10165000130280911502891710F48F5FE2CF98175B
:1016600008F0BBCE8150DDCFC83C99F0C63C49F5AF
:1016700081E090910F01911180E080930F0174D966
:101680008CE058DB8091150290E040D880930D01EA
:10169000BCCE609120017091210190E080E020E0BB
:1016A000AB01082E02C0569547950A94E2F74170A7
:1016B000240F01968830910599F72230C8F2D1E0C5
:1016C0008DCED0911A01D111FACFC33B51F4012B29
:1016D00009F083CEDD2011F086E9E82E8E2D39DB6E
:1016E0007DCEC33E19F480910D01F9CFC53C61F464
:1016F0008091150280930D0180E0BFDA70E060E018
:101700008AEB92E181DD6ACE70E060E08FE09CE0E0
:10171000C73B99F0CA3C59F48091150280931D0192
:1017200080911602809322011FD9F6DA57CECA3B68
:1017300031F670E060E087E19CE04EDD4FCEDD23C6
:1017400009F431CE70E060E080EC9CE05DDD45CED8
:101750000F931F93CF938B01C42F8830B9F48091DE
:1017600016028093DE011092DD0180E086DA80911E
:10177000180281112EC08091DD018F5F8093DD0101
:1017800070E060E08CEA98E027DD23C0982F907F1E
:10179000903B41F58091DD01481710F18150883070
:1017A00040F490910A02992321F090911602891336
:1017B00003DCC8016DE570E00E94AF17069771F475
:1017C0008091DD018F5F8093DD01C81710F088E301
:1017D00054DA80E0CF911F910F91089582E1F8CF04
:1017E00080E0F6CF903E51F48091DD01882379F0BE
:1017F000481768F08091DE01DFDBC2CF8A3049F400
:101800006091F9018091DD01F9010995ADD87CDC89
:10181000E0CF8930F1F68091DE01CEDBDACF22E431
:1018200033E043E095CF22E433E044E091CF20EF72
:1018300037E045E08DCF21E833E041E089CF2CE06F
:1018400034E042E085CF25E134E042E081CF20E37F
:1018500034E041E07DCF23E334E043E079CF91E011
:1018600090930A0229E334E048E072DF10920A0202
:101870000895CF93C0911A01C11125C0813C41F454
:1018800070E060E080EC9CE0BFDC8C2FCF9108958D
:10189000823C29F470E060E08BE799E0F5CF833C6F
:1018A00051F48091230190E00196877099278093ED
:1018B00023015AD8EACF873B31F470E060E08FE132
:1018C0009CE08ADCE2CFC1E0E0CFCF93833C29F5F6
:1018D000409116026091200170912101842F98E0BF
:1018E000282F30E02F5F3F4F27703327822FFB01D7
:1018F00002C0F695E7952A95E2F7E0FD02C0915007
:1019000079F74817B1F058DB8091160280931F01D8
:101910002BD8C0E08C2FCF910895C0911A01C1112E
:1019200008C0893B31F470E060E08FE29CE054DC59
:10193000F1CFC1E0EFCF80911702882369F0809149
:101940003E02813049F49EE894B980933E021092A1
:101950003F028FEE83B908950C940A0290912401FE
:10196000992369F08093FC0188E08093FA0181E07B
:101970008093FB01809115028093FD0108957DC93C
:101980000F931F93CF938B018830C9F480E0E6DF7B
:101990008091FB01082B10920E0280911F01809311
:1019A000160210920802012B31F0C0E08C2FCF916B
:1019B0001F910F91089581E080931702F6CF813037
:1019C00051F46931710588F3C091FB01C111EDCF6C
:1019D00080931702EBCF8330A1F580910E028F3FE9
:1019E00019F08F5F80930E0280911D01882361F0B2
:1019F00080911E0190E062EC71E00E94921708173E
:101A0000190710F00E94F10380913402B801843864
:101A1000A8F480E4BED980913F01882331F290E0A0
:101A200062EC71E00E9492178017910708F0BDCF19
:101A300070E060E081E49FE0E7DBB7CF80913C019C
:101A4000E9CF813BB1F481E090E00E94860386DF1C
:101A500080911C018111A9CF80910F01811104C0D7
:101A60000831110508F4A1CF61E070E085E999E043
:101A7000E3CF813EC9F3813839F480910D0190E0C4
:101A80000E9486036BDF91CF60910D0170E0813C75
:101A900069F3823B81F410920E02809110019091C3
:101AA0001A01911180911B01811103C086E990E018
:101AB000E7CF86E9E7CF823E11F480E0E3CF66E925
:101AC00070E0823C99F2833919F41092FB01F5CF52
:101AD000833C29F470E060E089E39CE0ADCF843C76
:101AE00009F4A6CF8D3B41F4F89488ED8FBD88E8CA
:101AF00080BF7894A895FFCF8F3C29F470E060E018
:101B00008AE094E099CF8A3BA1F40115110509F010
:101B10004DC0C0911A01CC2331F0FED810921A01A9
:101B20000E94B40442CF70E060E083E19CE054DBAB
:101B30003DCF833B29F470E060E081E190E17CCF10
:101B4000873CA1F490913C01892F82958F708F5F23
:101B500083708295807F9F70892B80933C0170E019
:101B600060E017D90E94B404D7D81FCF873BC9F4CF
:101B700081E080930902C8018F739927892B61F452
:101B800020913C01822F8F708F5F207F6BE00E943D
:101B9000A317922B90933C01B80180913C01F9D896
:101BA00004CF873E19F410920902BACFC0911A01EE
:101BB000C11123C08A3C39F4AFD881E080931A0167
:101BC0000E94B404F3CE853C39F4A6D870E060E0FE
:101BD0008AEB92E119DBEACE863C31F49DD870E0C5
:101BE00060E085E093E1F6CF893B39F4012B29F4DD
:101BF00070E060E08BE19CE09ACFC1E0D7CE0F931C
:101C00001F93CF9310921A028091720290917302E7
:101C10009C012F5F3F4F88279078822B932B9093C6
:101C2000730280937202C09118020E941A02C817B0
:101C3000C1F01092170280931802909174028823C9
:101C400009F43FC0892F80699F709F30C1F5809350
:101C5000740290E080E00E94E801109273021092FA
:101C60007202009172021091730280911702882310
:101C7000B1F1B80183E00E9490010E94AA010134F1
:101C8000110520F00F701127012BA9F41092E1012A
:101C900081E0809341024FDE8091E101811105C016
:101CA0008FEE83B981E0809335028091E1018F5FEF
:101CB0008F718093E101CF911F910F9108958F5FF4
:101CC000C6CF892F8F7E95FD08C0806880937402EF
:101CD0008091720290917302BECF806CF7CFC09159
:101CE00074028C2F807F70E060E0803B09F0B801C7
:101CF00081E00E949001C4FF12C0C801C5FD0CC064
:101D00000831110548F21092730210927202C062FB
:101D1000C093740290E080E00E94E801BDCFCC2324
:101D200009F4BACFC5FF03C00E94EC01B5CF023160
:101D3000110508F4B1CFC064C093740290E080E054
:101D40000E94E801F1CF8091400281110E94D604E7
:101D500080911A02811153CF0895EF92FF920F9351
:101D60001F93CF93DF93EC0100E317E08CECE82E98
:101D7000FF24F394209741F481E0DF91CF911F91EC
:101D80000F91FF90EF90089580910F02811117C07D
:101D900080911502843070F482E00E948A01C701AC
:101DA0000197F1F780E00E948A01CDDF0E94AA012D
:101DB0002197E0CF80E00E948A01C801F1CF80E046
:101DC000DCCF0F931F93CF93DF93C82F06EA8111C7
:101DD00002C00CE0C1E0D091160210E08091230116
:101DE000EBD882E30E943D06D0931602C801B5DF0E
:101DF00080912301E1D880E00E943D06D093160235
:101E00008AEF90E0AADFC15049F78D2FD5D88AE933
:101E100092E0DF91CF911F910F919FCFCF93DF93EE
:101E200064E60E94A317282F892F6AE00E94A31757
:101E3000EC01222341F0822FC4DF8C2FC2DF8D2FD3
:101E4000DF91CF91BECFC111F8CFF9CFCF93DF9300
:101E5000D82FC3E080910D010E943D0688EC90E0F0
:101E60007CDFDD2319F080E991E077DF80E00E94DC
:101E70003D0688EC90E071DFC15061F7DF91CF91B2
:101E800008950F931F93CF93DF93D82F8B01873B38
:101E900081F480E00E943D0681E080930902C80140
:101EA0008F739927892B09F4A6C0B80180913D0151
:101EB00058C080798039A9F4809112019D2F9F70BC
:101EC000913021F490911D019111892F0E943D06BE
:101ED000D13041F50931110508F445C0D0931702FE
:101EE000E4CF803819F480E00E943D06D83081F7B5
:101EF00010920E0270E060E080913D010E94C906E0
:101F0000C0911A01C1118BC0DA3B09F088C070E0A2
:101F100060E087E29CE060D98C2FDF91CF911F9128
:101F20000F910895D33009F580910E028F3F19F07B
:101F30008F5F80930E0280911D01882359F080915C
:101F40001E0190E062EC71E0EDD70817190710F060
:101F50000E94F10380913402B801843808F0A6CFC2
:101F600080E40E94C906C0E0D7CF70E060E080EC5A
:101F70009CE0D23C81F060910D0170E0D33C49F0CF
:101F8000D43B59F48CE00E949A061092740261E0EE
:101F900070E085E999E038D9E6CFD53C19F466E9D7
:101FA00070E0F7CFD33B79F4C8016EE370E0D7D788
:101FB000892B09F0A5CF70E060E083ECDF91CF9131
:101FC0001F910F9182CCD73C11F590913D01892F43
:101FD00082958F708F5F83708295807F9F70892B31
:101FE00080933D0170E060E00E94C9060E94B40445
:101FF0000E948C06B8CF20913D01822F8F708F5F99
:10200000207F6BE0A0D7922B90933D014ECFD73E1F
:1020100009F076CF109209020E94B404A4CFC1E067
:102020007BCFFF920F931F93CF93DF93D82F8B011A
:10203000C091020281E080930402C43081F4F090E8
:1020400008028D2F0E940908FF20A1F0809108024C
:10205000811110C070E060E080EC9CE0D5D8D830F1
:10206000A1F0D13C09F09FC170E060E080EC9CE001
:10207000CBD839C0D83089F4809135018093FE01E6
:1020800081E0809301010E94530480912501809397
:10209000020281E08093020126C0D23C69F41092D2
:1020A00008028C2F90E0019669E070E06CD7809375
:1020B00025018093020289C1D13B11F58091000175
:1020C000012B39F490910801891778F09FEF9093D4
:1020D000010190910101890F80930001811109C0D4
:1020E00081E08093000180E0B2C1823090F791E0FE
:1020F000EECF909108019817B0F790930001F3CFBD
:10210000D13E59F480910101819580930101809124
:10211000020181958093020158C1D23BD9F481E03C
:102120008093010180910001843018F081508093E8
:10213000000181E080930201C23008F0A8C100FDD7
:10214000D2CFEC2FF0E0E15FFE4F80A18F3F59F23C
:102150008F5F5AC1D43BE9F40F731127012BB9F4F7
:102160008091FE0190E0019663E070E00CD7C82FEB
:10217000809335018093FE010E9453048CE0CC23B0
:1021800021F080ECC13009F480E60E949A0681E0DB
:102190005EC1D43E19F40E94B404F9CFD63C89F450
:1021A0008091340183508A3050F0809334010E9432
:1021B00053040E94B4048CE00E949A0694CF8AE0F3
:1021C000F4CFD73C39F4809134018D5F8D3368F3BF
:1021D0008CE3EBCFD83C51F481E2809334010E9430
:1021E00053040E94B4040E948C06E5CFD13009F05C
:1021F000BDC10932110511F4D09301018091D901BB
:10220000682F660F87FD60958091F70170E090E080
:1022100089D6292F8091D801682F660F87FD609598
:102220008091F60170E090E07DD6290F8091D70172
:10223000682F660F87FD60958091F50170E090E052
:1022400071D6920F60910001862F8695891708F448
:1022500096958091FE01823009F49695690F772753
:10226000771F80910802813091F48091050290914E
:10227000060225E0969587952A95E1F724E730E058
:10228000A901481B590BCA014DD6B90168D6862F42
:102290000E943D06D091FE01D23059F000FD09C0E8
:1022A0000E942302982F91708091D901890F809309
:1022B000D9018091D8019091D601890F8093D801DE
:1022C000C091D701D23089F50E9423026FE13BD63D
:1022D0009C0F9093D7010E9423028F7331F40E94C8
:1022E00023026DE030D69093D601C091F601CC2345
:1022F00039F00E9423028F7319F4C150C093F60184
:10230000DD23B9F0C8018F779927892B11F40E943A
:1023100053040932110519F481E080930201809180
:102320001202080F00931202DECE0E94230265E221
:10233000CECF0E942302811114C00E942302282FB5
:1023400030E0809107016091340170E090E0EAD5BF
:1023500064E670E018D6C90116D68093F601109293
:10236000D801C091F501C33038F00E9423028F716B
:1023700019F4C150C093F5010E9423028F7749F6EA
:102380000E942302282F30E08091060160913401E1
:1023900070E090E0C7D564E670E0F5D5C901F3D5EB
:1023A0008093F501B6CFD23C09F47BCED33C81F4C7
:1023B000809116028F5F87700E94DC07EC2FF0E09F
:1023C000E15FFE4F80911602878B0E94B4048BCE92
:1023D000D43C21F48C2F90E0089666CED13B09F0D6
:1023E00043C0C23098F400FD7ECEEC2FF0E0E15FF8
:1023F000FE4F80A190910201891B883020F08F3F11
:1024000019F48EEF01C088E080A36DCEC83099F436
:102410008091310190910201890F823040F482E075
:1024200080933101809131010E943D065CCE893755
:10243000B8F388E7F5CFC73009F055CE8091380161
:1024400090910201890F49F491E090933801DF9156
:10245000CF911F910F91FF900895873918F48093C1
:10246000380141CE86E9FBCFD13E09F450CED23BB4
:1024700009F45FCED23E09F4A8CFD53CD1F470E088
:1024800060E08AEB92E10E94040980E0CDCFC83081
:1024900031F480913101833028F28150C1CFC730AF
:1024A00009F021CE80913801823008F41CCE815091
:1024B000D6CFD13009F42DCFD63C39F5C33071F4E5
:1024C000809133018F5F813138F4809333010E9412
:1024D000B4040E948C0607CE80E1F7CFC53051F4DA
:1024E000809136018C50823318F080933601EFCF03
:1024F00082E3FBCFC63009F0F6CD80913701882307
:1025000031F3815080933701E2CFD73CD9F4C33007
:1025100039F48091330181508C30B8F68CE0D5CFFE
:10252000C53039F480913601845F8739F0F286E94D
:10253000DCCFC63009F0D7CD809137018E3138F627
:102540008F5FE0CFD83C09F022CE8EE0C33009F493
:10255000BCCFC53021F482E880933601C4CDC630AB
:1025600009F0C1CD85E080933701BDCDD13C09F0A4
:102570001DCF7ACD0F931F93CF93DF93D82F8B016D
:10258000883031F480910402882311F088E049DD1D
:102590008D2F8079803999F481E080930302C09176
:1025A0000402CC2311F0C0E004C080910D010E9410
:1025B0003D068C2FDF91CF911F910F9108958038A8
:1025C00031F41092030280E00E943D06ECCFC1E09E
:1025D000D13079F7C0910302CC2359F080910402E5
:1025E000882309F3B80181E0DF91CF911F910F910A
:1025F00018CD80E00E94380280E00E942F06073349
:10260000114088F2D0931702D4CFFF920F931F93FB
:10261000CF93DF93D82F8B01F0900D018079803913
:1026200009F03EC0ED2FEF70E43090F010920302FD
:10263000C0E0F0920D01D83009F040C0B80188E048
:1026400020DC8C2FDF91CF911F910F91FF90089587
:1026500091E090930302F0E0E15FFE4F80A92FEF3D
:10266000280F263988F480930D011092040280917E
:102670001F0180931602C0E0809103028823C9F2F3
:10268000B8018D2F77DFD5CF909304028739A0F062
:102690008759990B69E070E076D480930202EBCF02
:1026A000803841F41092030280E00E943D0681E0F0
:1026B00080930F02C1E0E0CFC0E0E2CFD13061F4FF
:1026C00080910302811117C0B80181E0DF91CF91A1
:1026D0001F910F91FF90D5CBD33019F4B80183E04F
:1026E000F5CFD63C51F40E948C0670E060E080EC9F
:1026F0009CE00E940409C0E0A4CFD73B09F0A1CF21
:1027000070E060E08BE29CE00E94EC08F4CF1F9246
:102710000F920FB60F9211242F933F938F939F9395
:10272000AF93BF93EF93FF9380913F028823E9F02B
:10273000E0913E0220B131B1F0E0EE0FFF1FDF016A
:10274000A65CBD4F2D933C93EA5CFD4F8081918147
:102750008217930708F401962817390708F40197A0
:102760009183808381E08093400281E080933F02E7
:10277000FF91EF91BF91AF919F918F913F912F91D9
:102780000F900FBE0F901F9018951F920F920FB6CB
:102790000F9211248F9381E080931A028F910F90F2
:1027A0000FBE0F901F9018951F920F920FB60F92A9
:1027B00011248F9381E0809319028F910F900FBEA7
:1027C0000F901F901895F89485B7877F85BF90E08C
:1027D00088ED0FB6F894A8958FBD90B7977F90BFFE
:1027E0000FBE89E08CB98CE780BB82EA80937200CF
:1027F00081E1809371008FEF90E090936900809366
:10280000680084E08EB988BD8CB780618CBFA895C4
:1028100080E480BF90D8789481E00E94F60170E057
:1028200060E084E299E00E94EC0810920F020E949E
:102830008C060E941A0281119FC08FE091E0909354
:10284000110280931002F89490E080E000D4853A61
:1028500079F40091100210911102C1E0D0E0CE0194
:10286000F6D3F80181938F012196C633D105B9F7CC
:10287000789480911D0181110E94F10370E060E065
:1028800085E69CE00E94EC0861E070E080EC9CE052
:102890000E94EC082224239465E0362E77E2472E2E
:1028A000512C88248394912CFCEF6F2EF3E07F2E23
:1028B0000E94AA0180911D0290911E02009751F082
:1028C00060911B0270911C020E94040910921E026A
:1028D00010921D0280911702882321F180E00E944E
:1028E0003D06A89583E480BF1F980E941A028111BB
:1028F000FCCF0E94EC018CB780618CBF109240022B
:1029000010921A021092190280911702811163C06D
:1029100082E080930E018CB78F7E8CBF0CD8A89577
:1029200080E480BF10DA10920F0280913002909103
:102930003102F4E08A309F0709F085C0C0E7D0E09B
:1029400007E710E0FE0184918053F12C803108F0FC
:1029500069C037DA8CE291E000DA21960C171D0786
:1029600089F780EC9CE090931E0280931D021092E8
:102970001C0210921B029CCFC0E08C2F0E943D06CF
:1029800083E190E0EAD98C2F86950E943D0683E191
:1029900090E0E3D90E941A028823D1F0CF5FC034BF
:1029A00061F765E181E00E9415040E94B404C6E964
:1029B0008C2F0E943D0684E090E0CFD9C150C1F732
:1029C0003CCF8C2F0E943D068DE090E0C6D9C150CF
:1029D000C111F7CF32CF809141028823F9F086B739
:1029E0008F79806286BF86B7806186BF889586B7FB
:1029F0008F7E86BF809119028111109217028091FB
:102A00004002882321F0209235020E94D604809152
:102A10001A02882309F478CFF2D876CF86B78F7957
:102A20008064E0CF8F2D8295880F80720E943D06D2
:102A300080E190E092D9F394F9E1FF12F3CF8AE9B3
:102A400092E08BD987CF20E18131920799F032E172
:102A50008A3B930729F0E3E185309E0709F0D0C156
:102A600020910402213009F0CBC1209103022223DE
:102A700009F4C6C1D0910202ED2FF0E0DF01A15FA1
:102A8000BE4F57968C91579780931602D93008F015
:102A90000FCFE45BFA4E8AC25515551570158F1588
:102AA000581418168216C116FB159096CC9186E91B
:102AB0000E943D06D11110C0CA3250F4C3010197E3
:102AC000F1F780E00E943D068C2F90E046D9F0CED1
:102AD00081E090E042D9F5CF8C2F869590E0FACF37
:102AE000D0910D01C0E081E0CC2319F0C53019F47C
:102AF00085E00E94DC078D2F0E943D0681E290E078
:102B00002CD980E00E943D0682E490E026D9CF5F78
:102B1000CA3049F780911F0180931602C9CE0E94E6
:102B200023028F73E82EF12C0E94230267E00BD260
:102B3000E40102C0CC0FDD1F9A95E2F70E94230248
:102B4000632D01D2940102C0220F331F9A95E2F740
:102B5000C20FD31F0E94230290E0BE0114D2C80FFF
:102B6000D91FC739D10514F0C6E9D0E08C2F0E94D7
:102B70003D06C701F2D88E0153E0159507955A9589
:102B8000E1F70023B1F110E0C701E7D86E01C01AE8
:102B9000D10AE601D7FE02C0D0E0C0E08C2F0E942F
:102BA0003D060E942302837039F4C701D6D8CE01B6
:102BB000959587950E943D0632E0C316D10424F70F
:102BC0000E94230260913301BED1840102C0000F34
:102BD000111F9A95E2F70E942302E801219790E0E5
:102BE000C823D923C00FD11F80E00E943D06CE012B
:102BF0006DCF01E0C8CFC0913101CC0FC73908F0CB
:102C0000C6E9D4E08C2F0E943D0685E090E0A5D86F
:102C1000809131010E943D0681E490E09ED8D15020
:102C200089F780ED92E099D880E00E943D0640CE81
:102C30008091F80190910901891342C01092F80126
:102C400010913601812F90E067E070E06BD1EC01CC
:102C5000111119C080E00E943D060E942302632DDD
:102C600072D1892F90E0019668EE73E05BD175D840
:102C70000E94230267E067D19E5F990F990F990F19
:102C80009093090115CE812F0E943D0689E090E0C6
:102C900064D8CE0133E0969587953A95E1F70E9486
:102CA0003D060E942302632D4ED1692F70E06F5FB5
:102CB0007F4FC20168D1CB0150D811502797C8CFA0
:102CC0000E943D068DE090E048D88091F80190E0A8
:102CD000880F991F63E070E042D1862F0E943D0665
:102CE0008DE090E03AD88091F8018F5F8093F801F1
:102CF00090913601981708F0DBCD809109018093FF
:102D0000F801D6CDC091010281E08C0F80930102C1
:102D1000C7FDC19585E9A82EB12CC12CD12CE12C81
:102D2000F12C00E010E02C2F30E040E050E060E0BB
:102D300070E080E090E040D107E06ED1AC2E00E082
:102D40003BD107E069D100E037D107E065D100E071
:102D500033D107E061D181E0820F0E943D0680916E
:102D60000102811109C00E943D068091370190E067
:102D700068EE73E0D7D0AACE8091370190E00A9632
:102D8000A5CE9091FF019F5F9093FF01809100027B
:102D9000E82FF0E0E35BFE4F20812F3F21F43091DC
:102DA0000A01931731F0022E000C330B9217130611
:102DB000A9F48F5F809300021092FF0180FF1EC074
:102DC000C0913801D0E00E942302817002C0D595E5
:102DD000C7958A95E2F78C2F0E943D0680910002EC
:102DE000893149F4109200020E94230262E3ABD0C1
:102DF0009F5F90930A018AE090E068CE80E0ECCF7C
:102E0000ECE089339E07D1F488EE93E00E94AD0E8A
:102E1000809134028695869501D890913402892F4D
:102E2000880F867096959170892B0E940E0F809165
:102E30001A01811196CD88EE93E048CEF9E08B37E8
:102E40009F0729F4809132020E940E0FF4CF29E0EF
:102E500082359207C1F480911802811129CD8091A9
:102E60000D010E943D0684E690E00E94AD0E80E0D8
:102E70000E943D068091320190E068EE73E052D0EE
:102E80008456910923CE8251994061F480E00E94DA
:102E9000260F81E00E94260F80E00E94260F80ED21
:102EA00097E014CE80912401882389F18091FB0161
:102EB000882369F1209115023091FC0123130AC087
:102EC000822F0E943D061092FB018091FD018093AC
:102ED0001402EECC6091FA01231750F4832F821B69
:102EE00032D0811101C081E0820F0E943D0683CF64
:102EF000862F90E06EE170E015D06091FD01631BBC
:102F000070E041D0EB0121968FEF820F6ECE86B735
:102F10008F7986BF86B7806186BF889586B78F7E9A
:102F200086BFC6CC0024552704C0080E591F880F41
:102F3000991F009729F076956795B8F37105B9F751
:102F4000802D952F0895991B79E004C0991F96173D
:102F500008F0961B881F7A95C9F780950895AA1BDB
:102F6000BB1B51E107C0AA1FBB1FA617B70710F074
:102F7000A61BB70B881F991F5A95A9F780959095A6
:102F8000BC01CD01089597FB072E16F4009406D0DE
:102F900077FD08D0E4DF07FC05D03EF490958195DD
:102FA0009F4F0895709561957F4F0895EE0FFF1F15
:102FB0000590F491E02D0994DF93CF939F92A0E4C4
:102FC0009A2E0024D001E001F00116950795F794A0
:102FD000E794D794C794B794A79448F41068A20FC5
:102FE000B31FC41FD51FE61FF71F081E191E220F8F
:102FF000331F441F551F661F771F881F991F9A9400
:1030000021F79D01AE01BF01C00111249F90CF9116
:10301000DF91089597FD1094002E083098F0085025
:10302000232F342F452F562F672F782F892F912D3F
:10303000F4CF15949795879577956795579547950C
:10304000379527950A95AAF71124002D0895E1993F
:10305000FECF1FBA8EBBE09A99278DB30895262F15
:10306000E199FECF1FBA8EBBE09A81500DB20216D5
:1030700039F01CBA2DBB0FB6F894E29AE19A0FBE54
:063080000895F894FFCF53
:10308600180101010004192D664001820B3202006D
:10309600010B0B0B8282780107050100000000007E
:1030A60001000000010400000000000000000029EB
:1030B6004332020E2100820532072D001839040022
:1030C600781E98150504031101140117010104FF68
:1030D600020503FF05071B0105030AFF1403FF0290
:1030E600FF0AFFFFFF0100000000000000000000D3
:1030F60001010202020101010000000000000000BF
:1031060000000002010000000000000001000000B5
:1031160000000000000100060C051004140319024B
:103126001E01FF010000740184028C0394049C05B7
:10313600A406B007FF079D02D30286029B028902FE
:103146009B028C029B028F029B0292029B029502BB
:063156009B0298029B029F
:00000001FF
